:020000040000FA
:040000005CEF30F091
:105FBA00FFFFFFFF9468280EC66E140EC86E800E8F
:105FCA00C76E1200C582C5B2EDEF2FF0EFEF2FF0CA
:105FDA00E8EF2FF01200C580C5B0F6EF2FF0F8EF0A
:105FEA002FF0F1EF2FF01200C584C5B4FFEF2FF0A8
:105FFA0001EF30F0FAEF2FF01200C59AC588C5B844
:10600A0009EF30F00BEF30F004EF30F01200C58AE0
:10601A00C588C5B813EF30F015EF30F00EEF30F049
:10602A001200016EACA21CEF30F01EEF30F017EF39
:10603A0030F001C0ADFF1200060EC16E000E956E63
:10604A00000E936E000E8C6E000E8A6E9380938201
:10605A001200949C948E220EAF6E000EB06EB8861B
:10606A00AC84AC98AC8AAB8EAB881200250E2B6E32
:10607A00000E1C6E000E1D6E23C01EF024C01FF001
:10608A002B0E206E97EC30F01200016E01C0C9FF92
:10609A00C7B052EF30F054EF30F04DEF30F0C7B4E4
:1060AA0059EF30F05BEF30F054EF30F01200BA0ED7
:1060BA00F66E5F0EF76E000EF86E00EE65F010EEEB
:1060CA0004F00900F5CFEEFFE550E150FAE100EEE9
:1060DA003EF0270EEE6AE806FDE1000EF86E0001BA
:1060EA0035EF34F036503710D8A47EEF30F080EF19
:1060FA0030F089EF30F0860E236E6E0E246E3BEC84
:10610A0030F0FF0E96EF30F062C02CF063C02DF035
:10611A0035C02EF036C02FF037C030F057EC32F0D1
:10612A00000E12001EC021F01FC022F0A7EF30F0AF
:10613A001CC00BF01DC00CF0210E0D6E20C00EF01D
:10614A003FEC35F021C0F6FF22C0F7FF0800F550FA
:10615A000009D8A4B3EF30F0B5EF30F09DEF30F07E
:10616A00000E1D6E000E1C6E1200000E066E000E52
:10617A00056E000E086E000E076EC8EF30F0054A75
:10618A00062A074A082A07500124036E08500220EB
:10619A00046E03C0F6FF04C0F7FF0800F5500009BB
:1061AA00D8A4DAEF30F0DCEF30F0C4EF30F005C0FD
:1061BA0001F006C002F01200C586C5B6E7EF30F05E
:1061CA00E9EF30F0E2EF30F0C7A0EEEF30F0F0EF99
:1061DA0030F0E9EF30F0000000000000000000009D
:1061EA0000000000000000000000000000000000A5
:1061FA000000000000000000000000000000000095
:10620A000000C9CF01F001501200385062243A6EE2
:10621A00395063203B6E3A04800E3B58D8A018EFE1
:10622A0031F01AEF31F023EF31F04A0E236E6E0E81
:10623A00246E3BEC30F0FF0E32EF31F062C02CF0EE
:10624A0063C02DF036C02EF037C02FF038C030F0C2
:10625A0039C031F0C8EC32F0000E120003500410BD
:10626A00D8B43AEF31F03CEF31F060EF31F0010E83
:10627A00056E44EF31F0D89003360436052A04AE91
:10628A0049EF31F04BEF31F040EF31F00350015C50
:10629A0004500258D8A054EF31F056EF31F05AEFBB
:1062AA0031F00350015E0450025AD890043203328E
:1062BA00052E4BEF31F001C001F002C002F01200CE
:1062CA00000E066E000E056E03500410D8B470EF6F
:1062DA0031F072EF31F09AEF31F0010E076E7AEF7A
:1062EA0031F0D89003360436072A04AE7FEF31F036
:1062FA0081EF31F076EF31F0D8900536063603504B
:10630A00015C04500258D8A08DEF31F08FEF31F0C4
:10631A0094EF31F00350015E0450025A0580D89080
:10632A0004320332072E81EF31F005C001F006C0B6
:10633A0002F01200C0EF31F02CC02FF02DC030F067
:10634A00CFEF31F062502C242F6E63502D20306E27
:10635A00CFEF31F0000E2C242F6E800E2D20306EE0
:10636A00CFEF31F0DC0E236E6F0E246E3BEC30F073
:10637A00FF0EF1EF31F02E50000AD8B4A1EF31F040
:10638A00010AD8B4A7EF31F0030AD8B4AFEF31F05D
:10639A00B7EF31F0800E305CD8A0D6EF31F0D8EFED
:1063AA0031F0E0EF31F0BD0E236E6E0E246E3BEC41
:1063BA0030F0BDEF31F06A0E236E6F0E246EA00E20
:1063CA002F24256E000E3020266E3BEC30F02FC0B5
:1063DA0062F030C063F0000E120004500510D8B409
:1063EA00F9EF31F0FBEF31F004EF32F00450051011
:1063FA00D8A402EF32F004EF32F009EF32F0025083
:10640A0016EC30F056EF32F020EE0AF00450D9269E
:10641A000550DA22DE50DE10D8B416EF32F018EF4B
:10642A0032F033EF32F020EE0AF00450D92605504C
:10643A00DA2210EE03F00450E1260550E222DE5083
:10644A00E65CE650800A0A6EDE50800A0A58D8B026
:10645A0031EF32F033EF32F056EF32F020EE03F044
:10646A000450D9260550DA22DECF06F0DDCF07F038
:10647A0004C0D9FF05C0DAFFDECF08F0DDCF09F08E
:10648A0006500824D96E07500920DA6E02C0DFFFD1
:10649A0020EE03F00450D9260550DA22DE2A000E37
:1064AA00DD221200000E346E000E336EBCEF32F0A5
:1064BA00F0EC2FF0A00E4AEC30F02D504AEC30F000
:1064CA002C504AEC30F0E7EC2FF0A10E4AEC30F0F9
:1064DA002E503324D96EDA6AE1EC30F0DF6E2E509A
:1064EA003324D96EDA6ADE28D8A47EEF32F080EF40
:1064FA0032F082EF32F0C7EF32F0EA0E236E6E0E00
:10650A00246EA00E2C24256E000E2D20266E33C07C
:10651A0027F034C028F02E503324D96EDA6ADF50BF
:10652A00316E3150296E2A6A3BEC30F0FF0E2F246F
:10653A00316EFF0E3020326E3150335C3250345897
:10654A00D8B0AAEF32F0ACEF32F0B0EF32F002EC92
:10655A0030F0B2EF32F00CEC30F0F9EC2FF0020E22
:10656A002C242C6E000E2D202D6E334A342A2F50E7
:10657A00335C30503458D8A0C5EF32F0C7EF32F050
:10658A005DEF32F01200000E356E000E346E2DEF04
:10659A0033F0F0EC2FF0A00E4AEC30F02D504AEC1C
:1065AA0030F02C504AEC30F034502E24326E3550F4
:1065BA002F20336E32C0F6FF33C0F7FF0800F550C4
:1065CA00FF0AD8A4EBEF32F0EDEF32F0EFEF32F042
:1065DA0038EF33F034502E24326E35502F20336E7C
:1065EA0032C0F6FF33C0F7FF0800F5504AEC30F02E
:1065FA00150E236E6F0E246EA00E2C24256E000E2F
:10660A002D20266E34C027F035C028F034502E24B1
:10661A00326E35502F20336E32C0F6FF33C0F7FF8B
:10662A000800F550296E2A6A3BEC30F0F9EC2FF09D
:10663A00680E326EE40EE82EFED7322EFCD700D05A
:10664A00020E2C242C6E000E2D202D6E344A352A73
:10665A003050345C31503558D8A036EF33F038EF2B
:10666A0033F0CEEF32F01200000E0E6E2BEF34F044
:10667A0065C009F066C00AF067C00BF068C00CF08C
:10668A00000E116EB7EF33F00E500124046E000EA7
:10669A000220056E11500426000E052204C0F6FFE2
:1066AA0005C0F7FFF86A050EF76403D00800F55035
:1066BA0005D0F6CFE1FFF7CFE2FFE750106E2F0EBD
:1066CA0010646AEF33F06CEF33F07DEF33F03A0E7B
:1066DA00106072EF33F074EF33F07DEF33F0115046
:1066EA00090FD96EDA6A1050D00FDF6EB6EF33F0A9
:1066FA00450E1018D8A484EF33F086EF33F08EEFEE
:10670A0033F01150090FD96EDA6A0A0EDF6EB6EF4E
:10671A0033F0520E1018D8A495EF33F097EF33F0F8
:10672A009FEF33F01150090FD96EDA6A0B0EDF6E44
:10673A00B6EF33F04F0E1018D8A4A6EF33F0A8EF37
:10674A0033F0B0EF33F01150090FD96EDA6A0C0E3C
:10675A00DF6EB6EF33F01150090FD96EDA6AFF0E09
:10676A00DF6E112A050E1160BDEF33F0BFEF33F073
:10677A00D8EF33F00350046E056A11500EC006F0CC
:10678A00076A0626000E07220450065C0750800A94
:10679A00086E0550800A0858D8A0D6EF33F0D8EF13
:1067AA0033F049EF33F0000E0D6E000E0F6E0F50EE
:1067BA00090FD96EDA6ADE28D8A4E6EF33F0E8EFDB
:1067CA0033F0ECEF33F0000E8C6EFCEF33F00F5029
:1067DA00090FD96EDA6ADF50046E056A3D0E042489
:1067EA00F66E6E0E0520F76E0800F5CF8CFF0FC00F
:1067FA0004F0040E0426010E056E042A07EF34F095
:10680A00D8900536042E05EF34F08A500F0B051088
:10681A008A6E060E046E300EE82EFED7042EFCD7C2
:10682A0000D00F0E8A160F2A030E0F641FEF34F0E2
:10683A0021EF34F0DCEF33F00D2AC70E0D6428EF98
:10684A0034F02AEF34F0DAEF33F00E2A0E50035CFC
:10685A00D8B032EF34F034EF34F03DEF33F01200B9
:10686A002EEC30F0DFEC2FF021EC30F0000E0001BE
:10687A00E76F000EE66FFA0EE86F6F0EE96FE8C079
:10688A0001F0E9C002F0BAEC30F001C0EAF002C04F
:10689A00EBF0010E0001EA253C6E000EEB213D6E85
:1068AA003DBE61EF34F03D5009E1650E3C5CD8A075
:1068BA0061EF34F063EF34F06EEF34F08D0E236E37
:1068CA006F0E246E3BEC30F0000E0001E76F010EF4
:1068DA00E66FE8C036F0E9C037F0EAC038F0EBC03E
:1068EA0039F00AEC31F00009D8A47EEF34F080EFD9
:1068FA0034F08CEF34F0C30E236E6F0E246EE8C0B2
:10690A0025F0E9C026F03BEC30F091EF34F0000EB0
:10691A000001E76F010EE66F000E2D6E000E2C6E61
:10692A00000E2E6E9FEC31F00009D8A49FEF34F0D0
:10693A00A1EF34F0A9EF34F0400E236E6F0E246EEF
:10694A003BEC30F0AEEF34F0000E0001E76F010EC1
:10695A00E66F800E356E000E376E640E366E77EC7B
:10696A0030F00009D8A4BCEF34F0BEEF34F0CFEF1A
:10697A0034F00001EA51800FD96EDA6ADF6AAA0E92
:10698A00236E6F0E246E800E256E266A3BEC30F065
:10699A00D4EF34F0000E0001E76F010EE66F00013C
:1069AA00E651E711D8B4DCEF34F0DEEF34F0EAEF69
:1069BA0034F0F40EE46F6F0EE56FE4C001F0E5C049
:1069CA0002F0050E036E39EC33F081B0EFEF34F0CC
:1069DA00F1EF34F013EF35F0020E3D6E040E3C6E0B
:1069EA00BA0EE82EFED73C2EFCD73D2EFAD700D0A1
:1069FA0081B002EF35F004EF35F013EF35F0E8C05F
:106A0A0001F0E9C002F0EAC003F039EC33F081A0EA
:106A1A0011EF35F013EF35F00CEF35F081B218EFC6
:106A2A0035F01AEF35F0D4EF34F0020E3D6E040E55
:106A3A003C6EBA0EE82EFED73C2EFCD73D2EFAD776
:106A4A0000D081B22BEF35F02DEF35F0D4EF34F0D2
:106A5A00800E016E026AEAC003F039EC33F081A2BB
:106A6A0039EF35F03BEF35F034EF35F0D4EF34F051
:106A7A0000EF00F00D50D96EDA6ADECFF6FFDDCFF7
:106A8A00F7FF0800F550250AD8A44EEF35F050EF6D
:106A9A0035F00AEF37F00D50D96EDA6ADE2A000EA9
:106AAA00DD22000E5F6E000E5E6E5EC064F06068EE
:106ABA0061680D50D96EDA6ADECF15F0DDCF16F0B7
:106ACA0015C0F6FF16C0F7FF0800F550780AD8B4CB
:106ADA0071EF35F073EF35F081EF35F015C0F6FF41
:106AEA0016C0F7FF0800F550750AD8A47FEF35F0F5
:106AFA0081EF35F04DEF36F00E50D96EDA6A020E9C
:106B0A00DF26DF5CD96EDA6ADECF17F0DECF18F047
:106B1A00010E15240F6E000E1620106E0D50D96E40
:106B2A00DA6A0FC0DEFF10C0DDFF3DEF36F0200E3F
:106B3A001B6E1B061B503E0FD96EDA6A17C001F096
:106B4A0018C002F0000E046E0A0E036E33EC31F028
:106B5A000150300FDF6E17C001F018C002F0000EAE
:106B6A00046E0A0E036E65EC31F001C017F002C024
:106B7A0018F017501810D8B4C5EF35F0C7EF35F034
:106B8A00E1EF35F01B50D8A4CDEF35F0CFEF35F05B
:106B9A009EEF35F0E1EF35F01B503E0FD96EDA6A01
:106BAA00DF500F6E0F50026E036A0BC004F00CC068
:106BBA0005F0F2EC31F01B2A200E1B18D8A4E8EFDE
:106BCA0035F0EAEF35F0D1EF35F01DEF37F0200E52
:106BDA001B6E17500F0B146E0A0E1460F7EF35F088
:106BEA00F9EF35F0FDEF35F0300E1426FFEF35F0F2
:106BFA00570E14261B061B503E0FD96EDA6A14C0B4
:106C0A00DFFF173A183A0F0E17161850F00B171223
:106C1A000F0E181617501810D8B416EF36F018EFD2
:106C2A0036F032EF36F01B50D8A41EEF36F020EFC4
:106C3A0036F0EEEF35F032EF36F01B503E0FD96EDC
:106C4A00DA6ADF500F6E0F50026E036A0BC004F04F
:106C5A000CC005F0F2EC31F01B2A200E1B18D8A448
:106C6A0039EF36F03BEF36F022EF36F01DEF37F012
:106C7A0015C0F6FF16C0F7FF0800F550750AD8B41C
:106C8A009CEF35F00D0AD8B4ECEF35F04DEF36F045
:106C9A00000E116E0D50D96EDA6ADECFF6FFDDCF27
:106CAA00F7FF0800F550730AD8A45EEF36F060EFDC
:106CBA0036F06AEF36F00D50D96EDA6ADE2A000E27
:106CCA00DD22010E116EB6EF36F00D50D96EDA6A7A
:106CDA00DECFF6FFDDCFF7FF0800F5506C0AD8A427
:106CEA0079EF36F07BEF36F0B6EF36F00D50D96E0D
:106CFA00DA6ADECF0FF0DDCF10F0010E0F26000E9C
:106D0A0010220FC0F6FF10C0F7FF0800F5506C0AFA
:106D1A00D8A492EF36F094EF36F0B6EF36F00D5075
:106D2A00D96EDA6ADECF0FF0DDCF10F0020E0F2631
:106D3A00000E10220FC0F6FF10C0F7FF0800F55032
:106D4A00730AD8A4ABEF36F0ADEF36F0B6EF36F0F3
:106D5A000D50D96EDA6A030EDE26000EDD2266EFCA
:106D6A0036F01150D8B4BCEF36F0BEEF36F002EF71
:106D7A0037F00E50D96EDA6A020EDF26DF5CD96E62
:106D8A00DA6ADECF12F0DECF13F0E8EF36F012C087
:106D9A00F6FF13C0F7FFF86A050EF76403D0080080
:106DAA00F55005D0F6CFE1FFF7CFE2FFE7500F6EBF
:106DBA000F50026E036A0BC004F00CC005F0F2EC2F
:106DCA0031F0124A132A12C0F6FF13C0F7FFF86A0D
:106DDA00050EF76403D00800F55005D0F6CFE1FFA1
:106DEA00F7CFE2FFE7500009D8A4FEEF36F000EF34
:106DFA0037F0CCEF36F01DEF37F00D50D96EDA6A66
:106E0A00DE2A000EDD221DEF37F00D50D96EDA6A48
:106E1A00DECFF6FFDDCFF7FF0800F550026E036AFA
:106E2A000BC004F00CC005F0F2EC31F002EF37F0C1
:106E3A001200003F065B4F666D7D077F6F79505CDD
:106E4A004572726F3A2054656E7461746976612076
:106E5A00646520657363726576657220616C656D21
:106E6A0020646120636170616369646164652064A0
:106E7A0061206D656D6F7269610D0A004572726FEE
:106E8A003A2054656E746174697661206465206C79
:106E9A00657220616C656D20646120636170616355
:106EAA006964616465206461206D656D6F726961F2
:106EBA000D0A004572726F3A20506F6E74656972DE
:106ECA006F20666F726120646F73206C696D6974DC
:106EDA006573206461206D656D6F7269610D0A00CA
:106EEA00456E64657265636F20617475616C3A20E2
:106EFA00307825782C204C656974757261205B2581
:106F0A00755D203D202575200D0A00456E64657269
:106F1A0065636F20617475616C3A20307825782C2E
:106F2A002045736372697461205B25755D203D207D
:106F3A002575200D0A005375636573736F206E6F94
:106F4A00207265706F736963696F6E616D656E74C7
:106F5A006F20646F20706F6E746569726F0D0A001E
:106F6A005365656B3A20506F736963616F20616C7A
:106F7A00746572616461207061726120307825786D
:106F8A000D0A004572726F3A206D656E736167650E
:106F9A006D206D7569746F206C6F6E67612E0A00C3
:106FAA005375636573736F206E61206C65697475C0
:106FBA0072613A2025730D0A005375636573736F06
:106FCA00206E6120657363726974613A2025730DBE
:106FDA000A004572726F3A204F726967656D2069BF
:106FEA006E76616C6964610D0A004552524F520017
:066FFA00313233340000C7
:020000040020DA
:08000000FFFFFFFFFFFFFFFF00
:020000040030CA
:0E000000FF02191EFF8381FF0FC00FE00F40AB
:00000001FF
