:020000040000FA
:04000000CDEF32F01E
:106516009468280EC66E140EC86E800EC76E1200E2
:10652600C582C5B299EF32F09BEF32F094EF32F0AC
:106536001200C580C5B0A2EF32F0A4EF32F09DEF95
:1065460032F01200C584C5B4ABEF32F0ADEF32F0D5
:10655600A6EF32F01200C59AC588C5B8B5EF32F07D
:10656600B7EF32F0B0EF32F01200C58AC588C5B871
:10657600BFEF32F0C1EF32F0BAEF32F01200016E27
:10658600ACA2C8EF32F0CAEF32F0C3EF32F001C06E
:10659600ADFF120000EE49F0270EEE6AE806FDE1B7
:1065A600000EF86E000158EF34F0949C948E220E83
:1065B600AF6E000EB06EB886AC84AC98AC8AAB8E6B
:1065C600AB881200240E2A6E000E1B6E000E1C6E87
:1065D60022C01DF023C01EF02A0E1F6E26EC33F0DB
:1065E6001200016E01C0C9FFC7B0FCEF32F0FEEF2A
:1065F60032F0F7EF32F0C7B403EF33F005EF33F0C4
:10660600FEEF32F0120035503610D8A40DEF33F0FD
:106616000FEF33F018EF33F0D10E226E6E0E236EAD
:10662600E5EC32F0FF0E25EF33F06DC02BF06EC0B7
:106636002CF034C02DF035C02EF036C02FF008EC0B
:1066460035F0000E12001DC020F01EC021F036EFFE
:1066560033F01BC00BF01CC00CF0200E0D6E1FC0DB
:106666000EF0CEEC35F020C0F6FF21C0F7FF080093
:10667600F5500009D8A442EF33F044EF33F02CEF85
:1066860033F0000E1C6E000E1B6E1200C586C5B6DA
:106696004FEF33F051EF33F04AEF33F0C7A056EF28
:1066A60033F058EF33F051EF33F0000000000000F4
:1066B60000000000000000000000000000000000D4
:1066C60000000000000000000000000000000000C4
:1066D600000000000000C9CF01F001501200375041
:1066E6006D24396E38506E203A6E3904800E3A5851
:1066F600D8A080EF33F082EF33F08BEF33F0950EB6
:10670600226E6E0E236EE5EC32F0FF0E9AEF33F03A
:106716006DC02BF06EC02CF035C02DF036C02EF0BB
:1067260037C02FF038C030F0AFEC34F0000E120056
:1067360003500410D8B4A2EF33F0A4EF33F0C8EF3F
:1067460033F0010E056EACEF33F0D8900336043605
:10675600052A04AEB1EF33F0B3EF33F0A8EF33F010
:106766000350015C04500258D8A0BCEF33F0BEEFD2
:1067760033F0C2EF33F00350015E0450025AD89052
:1067860004320332052EB3EF33F001C001F002C02C
:1067960002F01200000E066E000E056E0350041085
:1067A600D8B4D8EF33F0DAEF33F002EF34F0010E5D
:1067B600076EE2EF33F0D89003360436072A04AEAC
:1067C600E7EF33F0E9EF33F0DEEF33F0D89005363C
:1067D60006360350015C04500258D8A0F5EF33F09A
:1067E600F7EF33F0FCEF33F00350015E0450025A2A
:1067F6000580D89004320332072EE9EF33F005C046
:1068060001F006C002F0120028EF34F02BC02EF083
:106816002CC02FF037EF34F06D502B242E6E6E50B7
:106826002C202F6E37EF34F0000E2B242E6E800EA8
:106836002C202F6E37EF34F0DB0E226E6F0E236E98
:10684600E5EC32F0FF0E57EF34F02D50000AD8B4C5
:1068560009EF34F0010AD8B40FEF34F0030AD8B4C4
:1068660017EF34F01FEF34F0800E2F5CD8A03EEF08
:1068760034F040EF34F048EF34F0080E226E6F0E1D
:10688600236EE5EC32F025EF34F0880E226E6F0EA3
:10689600236E2EC024F02FC025F0E5EC32F02EC07A
:1068A6006DF02FC06EF0000E1200D8EC32F08BECBB
:1068B60032F0F30E476E6F0E486E47C035F048C093
:1068C60036F0000E386E0C0E376E72EC33F000099F
:1068D600D8A470EF34F072EF34F07CEF34F0C20ECF
:1068E600226E6F0E236E47C024F048C025F0E5ECFB
:1068F60032F0000E2C6E000E2B6E000E2D6E07EC85
:1069060034F00009D8A48AEF34F08CEF34F092EF1B
:1069160034F0350E226E6F0E236EE5EC32F03B0E30
:10692600346E000E366E0C0E356E06EC33F0000932
:10693600D8A4A0EF34F0A2EF34F0ABEF34F0A90EF8
:10694600226E6F0E236E3B0E246E256AE5EC32F046
:10695600ABEF34F000EF00F0000E346E000E336E35
:10696600FCEF34F09CEC32F0A00EF4EC32F02C503C
:10697600F4EC32F02B50F4EC32F033502D24316E1F
:1069860034502E20326E31C0F6FF32C0F7FF0800B9
:10699600F550F4EC32F05F0E226E6F0E236E2BC0B4
:1069A60024F02CC025F033C026F034C027F0335035
:1069B6002D24316E34502E20326E31C0F6FF32C097
:1069C600F7FF0800F550286E296AE5EC32F0A5ECD1
:1069D60032F0680E316EE40EE82EFED7312EFCD76B
:1069E60000D0020E2B242B6E000E2C202C6E334A68
:1069F600342A2F50335C30503458D8A005EF35F088
:106A060007EF35F0B5EF34F01200000E336E000ECE
:106A1600326E5DEF35F09CEC32F0A00EF4EC32F005
:106A26002C50F4EC32F02B50F4EC32F093EC32F0C4
:106A3600A10EF4EC32F02D503224D96EDA6A49EC0C
:106A460033F0DF6E5F0E226E6F0E236E2BC024F0C6
:106A56002CC025F032C026F033C027F02D5032244A
:106A6600D96EDA6ADF50306E3050286E296AE5EC4E
:106A760032F0FF0E2E24306EFF0E2F20316E305076
:106A8600325C31503358D8B04BEF35F04DEF35F01E
:106A960051EF35F0AEEC32F053EF35F0B8EC32F0A2
:106AA600A5EC32F0020E2B242B6E000E2C202C6E41
:106AB600324A332A2E50325C2F503358D8A066EF14
:106AC60035F068EF35F00EEF35F012000450051082
:106AD600D8B470EF35F072EF35F07BEF35F0045037
:106AE6000510D8A479EF35F07BEF35F080EF35F05F
:106AF6000250C2EC32F0CDEF35F020EE0AF0045031
:106B0600D9260550DA22DE50DE10D8B48DEF35F0E6
:106B16008FEF35F0AAEF35F020EE0AF00450D926B3
:106B26000550DA2210EE03F00450E1260550E22269
:106B3600DE50E65CE650800A0A6EDE50800A0A588D
:106B4600D8B0A8EF35F0AAEF35F0CDEF35F020EE4E
:106B560003F00450D9260550DA22DECF06F0DDCF49
:106B660007F004C0D9FF05C0DAFFDECF08F0DDCF9D
:106B760009F006500824D96E07500920DA6E02C0C3
:106B8600DFFF20EE03F00450D9260550DA22DE2A74
:106B9600000EDD2212000D50D96EDA6ADECFF6FF46
:106BA600DDCFF7FF0800F550250AD8A4DDEF35F054
:106BB600DFEF35F036EF37F00D50D96EDA6ADE2AA0
:106BC600000EDD22000E6A6E000E696E69C06FF05F
:106BD6006B686C680D50D96EDA6ADECF14F0DDCFC3
:106BE60015F014C0F6FF15C0F7FF0800F550750A3A
:106BF600D8A400EF36F002EF36F079EF36F00E50FB
:106C0600D96EDA6A020EDF26DF5CD96EDA6ADECF6B
:106C160016F0DECF17F0010E14240F6E000E1520AD
:106C2600106E0D50D96EDA6A0FC0DEFF10C0DDFFA0
:106C36006DEF36F0200E1A6E1A061A50490FD96EED
:106C4600DA6A16C001F017C002F0000E046E0A0ED2
:106C5600036E9BEC33F00150300FDF6E16C001F06F
:106C660017C002F0000E046E0A0E036ECDEC33F070
:106C760001C016F002C017F016501710D8B446EF30
:106C860036F048EF36F062EF36F01A50D8A44EEFE1
:106C960036F050EF36F01FEF36F062EF36F01A504E
:106CA600490FD96EDA6ADF500F6E0F50026E036A13
:106CB6000BC004F00CC005F069EC35F01A2A200E62
:106CC6001A18D8A469EF36F06BEF36F052EF36F0AB
:106CD60049EF37F014C0F6FF15C0F7FF0800F5506E
:106CE600750AD8B41DEF36F079EF36F0000E116E46
:106CF6000D50D96EDA6ADECFF6FFDDCFF7FF08005A
:106D0600F550730AD8A48AEF36F08CEF36F096EF7A
:106D160036F00D50D96EDA6ADE2A000EDD22010E3B
:106D2600116EE2EF36F00D50D96EDA6ADECFF6FF5D
:106D3600DDCFF7FF0800F5506C0AD8A4A5EF36F0B2
:106D4600A7EF36F0E2EF36F00D50D96EDA6ADECFF5
:106D56000FF0DDCF10F0010E0F26000E10220FC02F
:106D6600F6FF10C0F7FF0800F5506C0AD8A4BEEF76
:106D760036F0C0EF36F0E2EF36F00D50D96EDA6A33
:106D8600DECF0FF0DDCF10F0020E0F26000E102220
:106D96000FC0F6FF10C0F7FF0800F550730AD8A41D
:106DA600D7EF36F0D9EF36F0E2EF36F00D50D96E68
:106DB600DA6A030EDE26000EDD2292EF36F011505F
:106DC600D8B4E8EF36F0EAEF36F02EEF37F00E5093
:106DD600D96EDA6A020EDF26DF5CD96EDA6ADECF9A
:106DE60012F0DECF13F014EF37F012C0F6FF13C027
:106DF600F7FFF86A050EF76403D00800F55005D0D2
:106E0600F6CFE1FFF7CFE2FFE7500F6E0F50026EAD
:106E1600036A0BC004F00CC005F069EC35F0124AA9
:106E2600132A12C0F6FF13C0F7FFF86A050EF764BF
:106E360003D00800F55005D0F6CFE1FFF7CFE2FF0B
:106E4600E7500009D8A42AEF37F02CEF37F0F8EF17
:106E560036F049EF37F00D50D96EDA6ADE2A000EA9
:106E6600DD2249EF37F00D50D96EDA6ADECFF6FF34
:106E7600DDCFF7FF0800F550026E036A0BC004F081
:106E86000CC005F069EC35F02EEF37F01200004526
:106E960072726F3A2054656E74617469766120640B
:106EA6006520657363726576657220616C656D2019
:106EB6006461206361706163696461646520646113
:106EC600206D656D6F7269610D0A004572726F3AC9
:106ED6002054656E746174697661206465206C6502
:106EE6007220616C656D2064612063617061636905
:106EF60064616465206461206D656D6F7269610D02
:106F06000A004572726F3A20506F6E746569726F2F
:106F160020666F726120646F73206C696D69746599
:106F260073206461206D656D6F7269610D0A00538F
:106F360075636573736F206E6F207265706F73690A
:106F460063696F6E616D656E746F20646F20706F1C
:106F56006E746569726F0D0A00456E6465726563CD
:106F66006F20617475616C3A2025752C204C65691B
:106F760074757261205B25755D203D202575200D99
:106F86000A005365656B3A20506F736963616F2021
:106F9600616C74657261646120706172612025752F
:106FA6000D0A005375636573736F206E61206C65FF
:106FB60069747572613A2025730D0A00537563650D
:106FC60073736F206E6120657363726974613A2012
:106FD60025730D0A004572726F3A204F7269676514
:106FE6006D20696E76616C6964610D0A00686F6C6C
:0A6FF60061206D756E61646F00008C
:020000040020DA
:08000000FFFFFFFFFFFFFFFF00
:020000040030CA
:0E000000FF021F1EFF8385FF0FC00FE00F40A1
:00000001FF
