:04000000DCEF30F011
:1060BA00FFFFFFFF9468280EC66E140EC86E800E8E
:1060CA00C76E1200C582C5B26DEF30F06FEF30F0C7
:1060DA0068EF30F01200C580C5B076EF30F078EF87
:1060EA0030F071EF30F01200C584C5B47FEF30F0A4
:1060FA0081EF30F07AEF30F01200C59AC588C5B842
:10610A0089EF30F08BEF30F084EF30F01200C58A5F
:10611A00C588C5B893EF30F095EF30F08EEF30F0C8
:10612A001200016EACA29CEF30F09EEF30F097EFB8
:10613A0030F001C0ADFF1200060EC16E000E956E62
:10614A00000E936E000E8C6E000E8A6E9380938200
:10615A001200949C948E220EAF6E000EB06EB8861A
:10616A00AC84AC98AC8AAB8EAB881200240E2A6E33
:10617A00000E1B6E000E1C6E22C01DF023C01EF006
:10618A002A0E1F6E17EC31F01200016E01C0C9FF12
:10619A00C7B0D2EF30F0D4EF30F0CDEF30F0C7B463
:1061AA00D9EF30F0DBEF30F0D4EF30F01200BA0E56
:1061BA00F66E600EF76E000EF86E00EE64F010EEEA
:1061CA0004F00900F5CFEEFFE550E150FAE100EEE8
:1061DA003DF0270EEE6AE806FDE1000EF86E0001BA
:1061EA00AFEF34F035503610D8A4FEEF30F000EFA0
:1061FA0031F009EF31F0B40E226E6E0E236EBBEC55
:10620A0030F0FF0E16EF31F061C02BF062C02CF0B7
:10621A0034C02DF035C02EF036C02FF0D5EC32F058
:10622A00000E12001DC020F01EC021F027EF31F031
:10623A001BC00BF01CC00CF0200E0D6E1FC00EF020
:10624A00B9EC35F020C0F6FF21C0F7FF0800F55081
:10625A000009D8A433EF31F035EF31F01DEF31F0FA
:10626A00000E1C6E000E1B6E1200000E066E000E53
:10627A00056E000E086E000E076E48EF31F0054AF3
:10628A00062A074A082A07500124036E08500220EA
:10629A00046E03C0F6FF04C0F7FF0800F5500009BA
:1062AA00D8A45AEF31F05CEF31F044EF31F005C079
:1062BA0001F006C002F01200C586C5B667EF31F0DC
:1062CA0069EF31F062EF31F0C7A06EEF31F070EF95
:1062DA0031F069EF31F0000000000000000000001A
:1062EA0000000000000000000000000000000000A4
:1062FA000000000000000000000000000000000094
:10630A000000C9CF01F00150120037506124396EE4
:10631A00385062203A6E3904800E3A58D8A098EF65
:10632A0031F09AEF31F0A3EF31F0780E226E6E0E53
:10633A00236EBBEC30F0FF0EB2EF31F061C02BF0F0
:10634A0062C02CF035C02DF036C02EF037C02FF0C9
:10635A0038C030F044EC33F0000E12000350041041
:10636A00D8B4BAEF31F0BCEF31F0E0EF31F0010E02
:10637A00056EC4EF31F0D89003360436052A04AE10
:10638A00C9EF31F0CBEF31F0C0EF31F00350015CCF
:10639A0004500258D8A0D4EF31F0D6EF31F0DAEF3A
:1063AA0031F00350015E0450025AD890043203328D
:1063BA00052ECBEF31F001C001F002C002F012004D
:1063CA00000E066E000E056E03500410D8B4F0EFEE
:1063DA0031F0F2EF31F01AEF32F0010E076EFAEFF8
:1063EA0031F0D89003360436072A04AEFFEF31F0B5
:1063FA0001EF32F0F6EF31F0D89005360636035049
:10640A00015C04500258D8A00DEF32F00FEF32F0C1
:10641A0014EF32F00350015E0450025A0580D890FE
:10642A0004320332072E01EF32F005C001F006C034
:10643A0002F0120040EF32F02BC02EF02CC02FF0E9
:10644A004FEF32F061502B242E6E62502C202F6EAB
:10645A004FEF32F0000E2B242E6E800E2C202F6E62
:10646A004FEF32F0DB0E226E6F0E236EBBEC30F074
:10647A00FF0E6FEF32F02D50000AD8B421EF32F040
:10648A00010AD8B427EF32F0030AD8B42FEF32F05A
:10649A0037EF32F0800E2F5CD8A056EF32F058EF6B
:1064AA0032F060EF32F0EB0E226E6E0E236EBBEC12
:1064BA0030F03DEF32F06B0E226E6F0E236E2EC05F
:1064CA0024F02FC025F0BBEC30F02EC061F02FC0B5
:1064DA0062F0000E120004500510D8B477EF32F0C3
:1064EA0079EF32F082EF32F004500510D8A480EF31
:1064FA0032F082EF32F087EF32F0025096EC30F051
:10650A00D4EF32F020EE0AF00450D9260550DA22F0
:10651A00DE50DE10D8B494EF32F096EF32F0B1EFDD
:10652A0032F020EE0AF00450D9260550DA2210EE95
:10653A0003F00450E1260550E222DE50E65CE65004
:10654A00800A0A6EDE50800A0A58D8B0AFEF32F0DD
:10655A00B1EF32F0D4EF32F020EE03F00450D92636
:10656A000550DA22DECF06F0DDCF07F004C0D9FFEE
:10657A0005C0DAFFDECF08F0DDCF09F006500824A7
:10658A00D96E07500920DA6E02C0DFFF20EE03F051
:10659A000450D9260550DA22DE2A000EDD22120026
:1065AA00000E336E000E326E38EF33F070EC30F0BE
:1065BA00A00ECAEC30F02C50CAEC30F02B50CAECCA
:1065CA0030F067EC30F0A10ECAEC30F02D503224D6
:1065DA00D96EDA6A61EC31F0DF6E2D503224D96E51
:1065EA00DA6ADE28D8A4FCEF32F0FEEF32F000EFD0
:1065FA0033F043EF33F0420E226E6F0E236E2BC040
:10660A0024F02CC025F032C026F033C027F02D50DC
:10661A003224D96EDA6ADF50306E3050286E296A19
:10662A00BBEC30F0FF0E2E24306EFF0E2F20316EA1
:10663A003050325C31503358D8B026EF33F028EF5F
:10664A0033F02CEF33F082EC30F02EEF33F08CEC99
:10665A0030F079EC30F0020E2B242B6E000E2C2039
:10666A002C6E324A332A2E50325C2F503358D8A01F
:10667A0041EF33F043EF33F0DBEF32F01200000E5C
:10668A00346E000E336EA7EF33F070EC30F0A00ECC
:10669A00CAEC30F02C50CAEC30F02B50CAEC30F077
:1066AA0033502D24316E34502E20326E31C0F6FF15
:1066BA0032C0F7FF0800F550FF0AD8A467EF33F09D
:1066CA0069EF33F06BEF33F0B2EF33F033502D2430
:1066DA00316E34502E20326E31C0F6FF32C0F7FFD1
:1066EA000800F550CAEC30F0420E226E6F0E236E8F
:1066FA002BC024F02CC025F033C026F034C027F07C
:10670A0033502D24316E34502E20326E31C0F6FFB4
:10671A0032C0F7FF0800F550286E296ABBEC30F04A
:10672A0079EC30F0680E316EE40EE82EFED7312E89
:10673A00FCD700D0020E2B242B6E000E2C202C6EC0
:10674A00334A342A2F50335C30503458D8A0B0EF33
:10675A0033F0B2EF33F04AEF33F01200000E0E6E50
:10676A00A5EF34F064C009F065C00AF066C00BF00A
:10677A0067C00CF0000E116E31EF34F00E50012498
:10678A00046E000E0220056E11500426000E05222A
:10679A0004C0F6FF05C0F7FFF86A050EF76403D0D8
:1067AA000800F55005D0F6CFE1FFF7CFE2FFE7503A
:1067BA00106E2F0E1064E4EF33F0E6EF33F0F7EFCC
:1067CA0033F03A0E1060ECEF33F0EEEF33F0F7EF00
:1067DA0033F01150090FD96EDA6A1050D00FDF6EFC
:1067EA0030EF34F0450E1018D8A4FEEF33F000EF66
:1067FA0034F008EF34F01150090FD96EDA6A0A0E34
:10680A00DF6E30EF34F0520E1018D8A40FEF34F0C8
:10681A0011EF34F019EF34F01150090FD96EDA6A1A
:10682A000B0EDF6E30EF34F04F0E1018D8A420EFA5
:10683A0034F022EF34F02AEF34F01150090FD96EF8
:10684A00DA6A0C0EDF6E30EF34F01150090FD96E90
:10685A00DA6AFF0EDF6E112A050E116037EF34F087
:10686A0039EF34F052EF34F00350046E056A1150D8
:10687A000EC006F0076A0626000E07220450065CC0
:10688A000750800A086E0550800A0858D8A050EFB1
:10689A0034F052EF34F0C3EF33F0000E0D6E000EF9
:1068AA000F6E0F50090FD96EDA6ADE28D8A460EF8E
:1068BA0034F062EF34F066EF34F0000E8C6E76EF4F
:1068CA0034F00F50090FD96EDA6ADF50046E056A88
:1068DA006B0E0424F66E6E0E0520F76E0800F5CFD7
:1068EA008CFF0FC004F0040E0426010E056E042A64
:1068FA0081EF34F0D8900536042E7FEF34F08A50B9
:10690A000F0B05108A6E060E046E300EE82EFED7A7
:10691A00042EFCD700D00F0E8A160F2A030E0F641E
:10692A0099EF34F09BEF34F056EF34F00D2AC70E8E
:10693A000D64A2EF34F0A4EF34F054EF34F00E2AD1
:10694A000E50035CD8B0ACEF34F0AEEF34F0B7EFD2
:10695A0033F01200AEEC30F05FEC30F0A1EC30F026
:10696A00000E0001E76F000EE66FF90EE86F6F0E7A
:10697A00E96FE8C001F0E9C002F03AEC31F001C079
:10698A00EAF002C0EBF0010E0001EA253B6E000EB0
:10699A00EB213C6E3CBEDBEF34F03C5009E1650E66
:1069AA003B5CD8A0DBEF34F0DDEF34F0E8EF34F0F5
:1069BA008C0E226E6F0E236EBBEC30F0000E0001BF
:1069CA00E76F010EE66FE8C035F0E9C036F0EAC0BD
:1069DA0037F0EBC038F08AEC31F00009D8A4F8EFB0
:1069EA0034F0FAEF34F006EF35F0C20E226E6F0E75
:1069FA00236EE8C024F0E9C025F0BBEC30F00BEFC1
:106A0A0035F0000E0001E76F010EE66F000E2C6EE6
:106A1A00000E2B6E000E2D6E1FEC32F00009D8A46A
:106A2A0019EF35F01BEF35F023EF35F0180E226E13
:106A3A006F0E236EBBEC30F028EF35F0000E00012C
:106A4A00E76F010EE66F800E346E000E366E640E2E
:106A5A00356EF7EC30F00009D8A436EF35F038EF90
:106A6A0035F049EF35F00001EA51800FD96EDA6A44
:106A7A00DF6AA90E226E6F0E236E800E246E256ABF
:106A8A00BBEC30F04EEF35F0000E0001E76F010E5F
:106A9A00E66F0001E651E711D8B456EF35F058EF2A
:106AAA0035F064EF35F0F30EE46F6F0EE56FE4C076
:106ABA0001F0E5C002F0050E036EB3EC33F081B0CD
:106ACA0069EF35F06BEF35F08DEF35F0020E3C6E65
:106ADA00040E3B6EBA0EE82EFED73B2EFCD73C2E98
:106AEA00FAD700D081B07CEF35F07EEF35F08DEF2C
:106AFA0035F0E8C001F0E9C002F0EAC003F0B3ECF7
:106B0A0033F081A08BEF35F08DEF35F086EF35F05D
:106B1A0081B292EF35F094EF35F04EEF35F0020E78
:106B2A003C6E040E3B6EBA0EE82EFED73B2EFCD707
:106B3A003C2EFAD700D081B2A5EF35F0A7EF35F099
:106B4A004EEF35F0800E016E026AEAC003F0B3EC34
:106B5A0033F081A2B3EF35F0B5EF35F0AEEF35F093
:106B6A004EEF35F000EF00F00D50D96EDA6ADECF45
:106B7A00F6FFDDCFF7FF0800F550250AD8A4C8EFC5
:106B8A0035F0CAEF35F021EF37F00D50D96EDA6AD9
:106B9A00DE2A000EDD22000E5E6E000E5D6E5DC006
:106BAA0063F05F6860680D50D96EDA6ADECF14F060
:106BBA00DDCF15F014C0F6FF15C0F7FF0800F55039
:106BCA00750AD8A4EBEF35F0EDEF35F064EF36F047
:106BDA000E50D96EDA6A020EDF26DF5CD96EDA6AE7
:106BEA00DECF16F0DECF17F0010E14240F6E000E62
:106BFA001520106E0D50D96EDA6A0FC0DEFF10C074
:106C0A00DDFF58EF36F0200E1A6E1A061A503D0FA5
:106C1A00D96EDA6A16C001F017C002F0000E046ECF
:106C2A000A0E036EB3EC31F00150300FDF6E16C05E
:106C3A0001F017C002F0000E046E0A0E036EE5ECB6
:106C4A0031F001C016F002C017F016501710D8B470
:106C5A0031EF36F033EF36F04DEF36F01A50D8A454
:106C6A0039EF36F03BEF36F00AEF36F04DEF36F0FB
:106C7A001A503D0FD96EDA6ADF500F6E0F50026E4E
:106C8A00036A0BC004F00CC005F070EC32F01A2A4B
:106C9A00200E1A18D8A454EF36F056EF36F03DEF0E
:106CAA0036F034EF37F014C0F6FF15C0F7FF0800CE
:106CBA00F550750AD8B408EF36F064EF36F0000ED6
:106CCA00116E0D50D96EDA6ADECFF6FFDDCFF7FF0F
:106CDA000800F550730AD8A475EF36F077EF36F04E
:106CEA0081EF36F00D50D96EDA6ADE2A000EDD2207
:106CFA00010E116ECDEF36F00D50D96EDA6ADECF85
:106D0A00F6FFDDCFF7FF0800F5506C0AD8A490EF24
:106D1A0036F092EF36F0CDEF36F00D50D96EDA6AD2
:106D2A00DECF0FF0DDCF10F0010E0F26000E10227D
:106D3A000FC0F6FF10C0F7FF0800F5506C0AD8A480
:106D4A00A9EF36F0ABEF36F0CDEF36F00D50D96E35
:106D5A00DA6ADECF0FF0DDCF10F0020E0F26000E3A
:106D6A0010220FC0F6FF10C0F7FF0800F550730A93
:106D7A00D8A4C2EF36F0C4EF36F0CDEF36F00D509E
:106D8A00D96EDA6A030EDE26000EDD227DEF36F0BA
:106D9A001150D8B4D3EF36F0D5EF36F019EF37F0FB
:106DAA000E50D96EDA6A020EDF26DF5CD96EDA6A15
:106DBA00DECF12F0DECF13F0FFEF36F012C0F6FF8F
:106DCA0013C0F7FFF86A050EF76403D00800F55000
:106DDA0005D0F6CFE1FFF7CFE2FFE7500F6E0F5075
:106DEA00026E036A0BC004F00CC005F070EC32F0BE
:106DFA00124A132A12C0F6FF13C0F7FFF86A050EEB
:106E0A00F76403D00800F55005D0F6CFE1FFF7CFBD
:106E1A00E2FFE7500009D8A415EF37F017EF37F073
:106E2A00E3EF36F034EF37F00D50D96EDA6ADE2A26
:106E3A00000EDD2234EF37F00D50D96EDA6ADECF5C
:106E4A00F6FFDDCFF7FF0800F550026E036A0BC0AC
:106E5A0004F00CC005F070EC32F019EF37F01200B4
:106E6A00003F065B4F666D7D077F6F79505C457208
:106E7A00726F3A2054656E74617469766120646534
:106E8A0020657363726576657220616C656D206436
:106E9A006120636170616369646164652064612073
:106EAA006D656D6F7269610D0A004572726F3A20E5
:106EBA0054656E746174697661206465206C6572CC
:106ECA0020616C656D20646120636170616369642F
:106EDA00616465206461206D656D6F7269610D0A78
:106EEA00004572726F3A20506F6E746569726F2036
:106EFA00666F726120646F73206C696D6974657363
:106F0A00206461206D656D6F7269610D0A005375A9
:106F1A00636573736F206E6F207265706F73696338
:106F2A00696F6E616D656E746F20646F20706F6E2D
:106F3A00746569726F0D0A00456E64657265636FE8
:106F4A0020617475616C3A2025752C204C65697432
:106F5A00757261205B25755D203D202575200D0A1F
:106F6A00005365656B3A20506F736963616F2061E6
:106F7A006C74657261646120706172612025750D9F
:106F8A000A004572726F3A206D656E736167656DAE
:106F9A00206D7569746F206C6F6E67612E0A0053DD
:106FAA0075636573736F206E61206C6569747572A1
:106FBA00613A2025730D0A005375636573736F2058
:106FCA006E6120657363726974613A2025730D0AD4
:106FDA00004572726F3A204F726967656D20696E5B
:106FEA0076616C6964610D0A004552524F52003154
:056FFA003233340000F9
:020000040020DA
:08000000FFFFFFFFFFFFFFFF00
:020000040030CA
:0E000000FF02191EFF8381FF0FC00FE00F40AB
:00000001FF
